:020000040800F2
:1000000010360020E1020008956200083551000812
:1000100091620008050700084398000800000000EE
:10002000000000000000000000000000DD73000878
:100030004F0900080000000045680008DF73000851
:10004000FB020008FB020008FB020008FB0200089C
:10005000FB020008FB020008FB020008FB0200088C
:10006000FB020008FB020008FB020008FB0200087C
:10007000FB020008FB020008FB020008FB0200086C
:10008000FB020008FB020008FB020008FB0200085C
:10009000FB020008FB020008FB020008FB0200084C
:1000A000FB020008FB020008FB020008FB0200083C
:1000B000FB020008FB020008FB020008FB0200082C
:1000C000FB020008FB020008FB020008FB0200081C
:1000D000FB020008FB020008FB020008FB0200080C
:1000E000FB020008FB020008FB020008FB020008FC
:1000F000FB020008FB020008FB020008FB020008EC
:10010000FB020008FB020008FB020008FB020008DB
:10011000FB020008FB020008FB020008FB020008CB
:10012000FB02000805080008FB020008FB020008AB
:10013000FB020008FB020008FB020008FB020008AB
:10014000FB020008FB020008FB020008FB0200089B
:10015000FB020008FB020008FB020008FB0200088B
:10016000FB020008FB020008E1620008D1620008FF
:10017000FB020008F1620008F5070008000000001B
:10018000FB020008FB020008FB020008FB0200085B
:10019000FB020008FB020008FB020008FB0200084B
:1001A000FB020008FB020008FB020008FB0200083B
:1001B000FB020008FB020008FB020008FB0200082B
:1001C000FB020008FB02000800000000FB02000820
:1001D000FB020008FB020008FB020008FB0200080B
:1001E000FB020008FB020008FB020008FB020008FB
:1001F000FB020008FB02000800F002F800F060F8C3
:100200000AA090E8000C82448344AAF10107DA4571
:1002100001D100F055F8AFF2090EBAE80F0013F063
:10022000010F18BFFB1A43F0010318476CC200000E
:100230009CC200000A444FF0000C10F8013B13F080
:10024000070408BF10F8014B1D1108BF10F8015B2F
:10025000641E05D010F8016B641E01F8016BF9D122
:1002600013F0080F1EBF10F8014BAD1C0C1B09D179
:100270006D1E58BF01F801CBFAD505E014F8016BEB
:1002800001F8016B6D1EF9D59142D6D3704700007D
:100290000023002400250026103A28BF78C1FBD88F
:1002A000520728BF30C148BF0B6070471FB50CF024
:1002B00008F89DE8030000F037F91FBD10B510BD28
:1002C00000F09EF91146FFF7F1FF0AF021FF00F060
:1002D000BCF903B4FFF7F2FF03BC00F0EDF9000036
:1002E0000948804709480047FEE7FEE7FEE7FEE7CA
:1002F000FEE7FEE7FEE7FEE7FEE7FEE70448054906
:10030000054A064B70470000FD740008F90100081B
:10031000102C002010360020103100201031002059
:1003200070B5A0FB0140B4F1805170F1000024BF12
:10033000002070BD204600F007F805001CBF2146D4
:1003400000F08AF8284670BD70B5064600F0D0F877
:10035000056806F10B0020F00704B4429CBF0020A2
:1003600070BD2B466A68BAB11068A04210D304F180
:10037000080188423CBF5068586007D35168101983
:1003800041601168091B016058601460101D70BD48
:1003900013465268002AE7D12146284600F0B0F8FB
:1003A0000028DED170BD70B50446051F00F0A0F82E
:1003B0000068002C14BF446870BD002C18BFAC420C
:1003C0003CBF20466468F8D301680A18AA4218BFE7
:1003D000456003D12A680546114401602868411927
:1003E000A1421CBF6C6070BD6168696021680844EF
:1003F000286070BD10B5203AC0F00B80B1E81850ED
:10040000203AA0E81850B1E81850A0E81850BFF4FE
:10041000F5AF5FEA027C24BFB1E81850A0E818509D
:1004200044BF18C918C0BDE810405FEA827C24BFF1
:1004300051F8043B40F8043B08BF7047D20728BF7F
:1004400031F8023B48BF11F8012B28BF20F8023BCE
:1004500048BF00F8012B70474FF000020429C0F09C
:10046000128010F0030C00F01B80CCF1040CBCF1E6
:10047000020F18BF00F8012BA8BF20F8022BA1EB38
:100480000C0100F00DB85FEAC17C24BF00F8012B1D
:1004900000F8012B48BF00F8012B70474FF0000215
:1004A00000B5134694469646203922BFA0E80C506A
:1004B000A0E80C50B1F12001BFF4F7AF090728BF45
:1004C000A0E80C5048BF0CC05DF804EB890028BFC1
:1004D00040F8042B08BF704748BF20F8022B11F0EA
:1004E000804F18BF00F8012B704770477047704766
:1004F00000487047B42B0020704770477047704722
:1005000038B504460A4600206946AFF3008000284B
:1005100008BF38BD02460099204600F04FF8012080
:1005200038BD012000F064B8F8B5AFF3008005468F
:1005300000200C46102000BF0646A819A0420DD985
:10054000324669460020AFF30080070008BF00F084
:100550004FF80098A04218BF0546C419FFF7C8FF1E
:1005600005600746F01D20F007004619284600F0F8
:100570000AF8B44208BFF8BDA21B31463868BDE88E
:10058000F84000F01BB800210160C0E9011070477D
:100590001020704710B500F00DF8006810BD10B5C0
:1005A000044600F007F8046010BD000000487047E2
:1005B000AC2B002000487047AC2B0020034640685D
:1005C0008C46002818BF88423CBF03464068F8D3D9
:1005D00018681844884207D00CF1030020F0070087
:1005E000001D411A521A0146081D0A60FFF7DBBEC2
:1005F00010B500F039F8BDE8104000F02FB8704792
:100600007546FFF7D3FFAE4605006946534620F016
:100610000700854618B020B5FFF770FEBDE8204002
:100620004FF000064FF000074FF000084FF0000BAE
:1006300021F00701AC46ACE8C009ACE8C009ACE861
:10064000C009ACE8C0098D46704710B50446AFF349
:1006500000802046BDE81040FFF73BBE002801D0D7
:1006600000F02AB87047000010B5012805D000211D
:1006700003A000F027F8012010BD09A1F8E7000051
:1006800053494752544D454D3A204F7574206F667B
:100690002068656170206D656D6F727900000000E3
:1006A0003A2048656170206D656D6F727920636FC7
:1006B000727275707465640001491820ABBEFEE764
:1006C0002600020070B505460C460A2000E06D1CAD
:1006D00000F011F835B128780028F8D102E0641C48
:1006E00000F009F814B120780028F8D1BDE8704076
:1006F0000A20AFF3008008B569468DF8000003209A
:10070000ABBE08BD00BFFEE770B50546AC6BA06C84
:10071000406D022806D0012084F83500E06C40F0DE
:100720004000E064204600F015F970BD70B5064643
:100730000025B46BA06B68B3A06C0068006800F47F
:100740000025A06B00F0010078B975B1A06C0068BD
:10075000C568E26B082303FB02510022A06C00F085
:1007600049FBA06B401EA0632FE0A06C00680068EE
:1007700000F4002048BBA06C00680569E26B082308
:1007800003FB02510122A06C00F034FBA06B401E61
:10079000A0631AE0A06C0068006800F4002020B19B
:1007A000D4E911010968C8600FE0A06C0068006816
:1007B00000F4002048B9656CE06B042101FB005097
:1007C000A16C09680861206CA063A06B216C884251
:1007D0000ED12068C06840F001002168C860206820
:1007E000006800F00200022802D1012084F83500E0
:1007F00070BD000010B5024800F0AEF810BD00005A
:100800000811002010B5024801F04EFB10BD000099
:10081000581100200146087810381823B0FBF3F275
:100820000848805CC865032A05D908686FF3090089
:10083000001D886503E008686FF309008865886D0E
:100840007047000012C30008014600208A6A8B69C5
:1008500003BB32B1012A0CD0022A10D0032A17D1CF
:1008600015E0CB6A03F08073B3F1807F00D10120E3
:100870000FE0CB6AB3F1C07F00D1012009E0CB6A61
:1008800003F08073B3F1807F00D1012001E000E02C
:1008900000BF35E08B69B3F5005F1BD132B1012A8F
:1008A00006D0022A0CD0032A12D10BE0012010E05E
:1008B000CB6A03F08073B3F1807F00D1012008E0A0
:1008C000012006E0CB6AB3F1C07F00D1012000E037
:1008D00000BF15E032B1012A05D0022A04D0032A54
:1008E0000CD103E000BF00BF012008E0CB6A03F099
:1008F0008073B3F1807F00D1012000E000BF00BF12
:10090000704710B5046863608468402C04D10468A3
:10091000A2600468E16003E00468A1600468E2602A
:1009200010BD30B50468246824F4802405682C6068
:10093000046863608468402C04D10468A260046881
:10094000E16003E00468A1600468E26030BD7047C4
:1009500000BFFEE77047704770B504462068056920
:1009600005F0040004280ED121684861E06C40F0D5
:100970000200E064042084F835002348A16C086577
:10098000A06C01F07CFA05F0020002280ED121686B
:100990004861E06C40F00100E064042084F8350018
:1009A0001948A16C0865A06C01F069FA05F0100007
:1009B000102804D121684861204600F085F805F030
:1009C0000800082804D121684861204600F0FAF99F
:1009D00005F00100B8B12068006800F002000228AC
:1009E00005D12068C06820F01E002168C86020681A
:1009F000C06820F001002168C860012021684861BA
:100A00002046FFF7A8FF70BD0907000810B504468F
:100A10000CB9012010BD94F8350010B9204600F043
:100A200055F8022084F83500206800682549084000
:100A300021680860616960680843E16808432169CA
:100A40000843A1680843A1690843216A0843616A11
:100A50000843A16A0843E16A0843216B08432168FF
:100A60000968084321680860606810281DD1217F4B
:100A7000607F4FF47F4292FAA2F2B2FA82F2904083
:100A80000843A17F4FF47F0292FAA2F2B2FA82F2F7
:100A900091400843E17F4FF07F4292FAA2F2B2FA0E
:100AA00082F291400843216888612068C06840F064
:100AB0001E002168C8600020E064012084F8350031
:100AC0000020A7E707F0E0FF7047000010B586B0F0
:100AD00004465149206888427ED100BF4F480068D3
:100AE00040F001004D4908600846006800F0010030
:100AF000009000BF00BF1020019002200290002053
:100B0000039004900D20059001A9454801F0C0FB19
:100B100080200190022002900020039004900D207C
:100B2000059001A93F4801F0B3FBD02001900220BD
:100B300002900020039004900D20059001A93A48EE
:100B400001F0A6FB4FF4806001900220029000208B
:100B5000039004900D20059001A9344801F098FB02
:100B60004FF4147001900220029000200390049032
:100B70000D20059001A92E4801F08AFB80200190EC
:100B8000022002900020039004900D20059001A9FE
:100B9000284801F07DFB4FF4805001900220029024
:100BA0000020039004900D20059001A9224801F037
:100BB0006FFB2248224908604FF000704860002116
:100BC0001F488160C1604FF480610161890041610B
:100BD00089008161891100E01BE0C161002101628F
:100BE00004214162032181620021C162016301F09D
:100BF0007FFA08B1FFF7ACFE00BF1148A064846320
:100C000000BF002211464E2002F09EF84E2002F056
:100C10008EF806B010BD00000000055034380240C8
:100C20000010024000040240002002400018024070
:100C30000000024000080240001C024028640240FC
:100C4000581100202DE9F84304460F4615461E466C
:100C50004FF0000800BF94F83400012802D10220B0
:100C6000BDE8F883012084F8340000BF022084F836
:100C700035002068006840F48040216808602068E2
:100C8000006820F00200216808602068006838438E
:100C9000216808602448A16CC8632448A16CC8641A
:100CA0000020A16C0865A0632064B6F5803F08D2DF
:100CB000226802F1280133462A46A06C01F08CFA22
:100CC00024E01948A16C48640120A063E6636564D0
:100CD00005E0E06B4008E063A06B4000A063E06BC0
:100CE000B0F5803FF5D2A06B801EA063A06B20649E
:100CF000E06B042101FB0058E06B0090226802F1D8
:100D0000280143462A46A06C00F07EF8206800685F
:100D100040F001002168086000BF002084F8340022
:100D200000BF00BF9CE700002D070008090700086E
:100D300070B5044622480068C0084FF47A71B0FBD1
:100D4000F1F000FB01F5002600BF94F83400012803
:100D500001D1022070BD012084F8340000BF0220C0
:100D600084F835002068006820F0010021680860E0
:100D700000BF281EA5F1010505D1E06C40F0200060
:100D8000E064032605E02068006800F00100002808
:100D9000EFD100BF2068006820F48040216808601F
:100DA000A06C01F017F8E06CE064012084F83500D5
:100DB00000BF002084F8340000BF3046CAE70000BE
:100DC0000000002010B5044608480078401C074980
:100DD000087008460078022807D1002008702046D5
:100DE000FFF7A6FF01200249087010BD070100208F
:100DF00000010020034612B91868C16001E01868BC
:100E000001610020704700002DE9F04704460E46BE
:100E100017461D46DDF820804FF00009A0688028A5
:100E200004D1400060650120BDE8F08700BF94F860
:100E30003400012801D10220F6E7012084F83400B3
:100E400000BF94F83500012873D1022084F83500E2
:100E5000002060652068006840F4802021680860F8
:100E60002068056143463A4631462046FFF749FD72
:100E7000FA49206888425DD9F9492068884201D141
:100E8000202052E0F54948392068884201D12020CD
:100E90004BE0F34960312068884201D1202044E0D2
:100EA000EE4918312068884201D120203DE0EC490C
:100EB00018312068884201D1C01436E0E749303942
:100EC0002068884201D1C0142FE0E54978312068BC
:100ED000884201D1C01428E0E049303120688842BE
:100EE00001D1C01421E0DE4930312068884202D1AE
:100EF0004FF4001019E0D94918392068884202D10E
:100F00004FF4001011E0D64990312068884202D198
:100F10004FF4001009E0D14948312068884202D1DD
:100F20004FF4001001E04FF00060CC494C390860EC
:100F300020E1EFE3CA49A831206888425CD9C8495A
:100F40002068884201D1202052E0C44948392068F5
:100F5000884201D120204BE0C1496031206888429D
:100F600001D1202044E0BD4918312068884201D1D8
:100F700020203DE0BA4918312068884201D1C014D0
:100F800036E0B64930392068884201D1C0142FE0DC
:100F9000B34978312068884201D1C01428E0AF49B4
:100FA00030312068884201D1C01421E0AC49303191
:100FB0002068884202D14FF4001019E0A74918397F
:100FC0002068884202D14FF4001011E0A44990310A
:100FD0002068884202D14FF4001009E09F4948314F
:100FE0002068884202D14FF4001001E04FF0006009
:100FF0009A4950390860BDE09949483120688842D3
:101000005CD997492068884201D1202052E0934959
:1010100048392068884201D120204BE09049603156
:101020002068884201D1202044E08C491831206892
:10103000884201D120203DE089491831206888424A
:1010400001D1C01436E0854930392068884201D189
:10105000C0142FE0824978312068884201D1C01441
:1010600028E07E4930312068884201D1C01421E057
:101070007B4930312068884202D14FF4001019E0DA
:10108000764918392068884202D14FF4001011E0E7
:10109000734990312068884202D14FF4001009E072
:1010A0006E4948312068884202D14FF4001001E0B7
:1010B0004FF000606A491039C8605BE068492068F9
:1010C000884201D1202052E0644948392068884292
:1010D00001D120204BE0624960312068884201D173
:1010E000202044E05D4918312068884201D1202049
:1010F0003DE05B4918312068884201D1C01436E0D8
:10110000564930392068884201D1C0142FE0544933
:1011100078312068884201D1C01428E04F4930312D
:101120002068884201D1C01421E04D493031206847
:10113000884202D14FF4001019E04849183920685C
:10114000884202D14FF4001011E0454990312068E7
:10115000884202D14FF4001009E04049483120682C
:10116000884202D14FF4001001E04FF000603C498A
:10117000103988603949206888425CD9384920682C
:10118000884201D1102052E0344948392068884211
:1011900001D110204BE0324960312068884201D1F2
:1011A000102044E02D4918312068884201D11020D8
:1011B0003DE02B4918312068884201D1001536E006
:1011C000264930392068884201D100152FE0244992
:1011D00078312068884201D1001528E01F4930315C
:1011E0002068884201D1001521E01D493031206876
:1011F000884202D14FF4801019E01849183920684C
:10120000884202D14FF4801011E0154990312068D6
:10121000884202D14FF4801009E01049483120681B
:10122000884202D14FF4801001E04FF080600B49FA
:101230004C39086020E10A49A831206888425FD90A
:1012400007492068884201D1102055E003494839F8
:101250002068884206D110204EE000005864024009
:1012600010600240F8492068884201D1102043E014
:10127000F6492068884201D110203DE0F249483902
:101280002068884201D1001536E0F04948392068CD
:10129000884201D100152FE0EB49183120688842BF
:1012A00001D1001528E0E94918312068884201D1B0
:1012B000001521E0E44930392068884202D14FF41A
:1012C000801019E0E14930392068884202D14FF49A
:1012D000801011E0DC4930312068884202D14FF49F
:1012E000801009E0D94930312068884202D14FF49A
:1012F000801001E04FF08060D44968390860BBE09D
:10130000D1491839206888425BD9CF4960392068B3
:10131000884201D1102050E0CC49603920688842D1
:1013200001D1102049E0C8492068884201D110202D
:1013300043E0C6492068884201D110203DE0C249FF
:1013400048392068884201D1001536E0BF49483944
:101350002068884201D100152FE0BB491831206870
:10136000884201D1001528E0B84918312068884228
:1013700001D1001521E0B44930392068884202D1FA
:101380004FF4801019E0B14930392068884202D109
:101390004FF4801011E0AC4930312068884202D10E
:1013A0004FF4801009E0A94930312068884202D109
:1013B0004FF4801001E04FF08060A3497039C8609D
:1013C0005AE0A14960392068884201D1102050E0DC
:1013D0009E4960392068884201D1102049E09A492D
:1013E0002068884201D1102043E098492068884253
:1013F00001D110203DE0944948392068884201D14C
:10140000001536E0914948392068884201D100151D
:101410002FE08D4918312068884201D1001528E05D
:101420008A4918312068884201D1001521E0864997
:1014300030392068884202D14FF4801019E0834986
:1014400030392068884202D14FF4801011E07E4983
:1014500030312068884202D14FF4801009E07B4986
:1014600030312068884202D14FF4801001E04FF003
:1014700080607549703988607449183920688842DD
:101480005BD9714960392068884201D1082050E059
:101490006E4960392068884201D1082049E06A49D4
:1014A0002068884201D1082043E0684920688842CA
:1014B00001D108203DE0644948392068884201D1C3
:1014C000401536E0614948392068884201D140150D
:1014D0002FE05D4918312068884201D1401528E08D
:1014E0005A4918312068884201D1401521E05649F7
:1014F00030392068884202D14FF4002019E0534966
:1015000030392068884202D14FF4002011E04E4962
:1015100030312068884202D14FF4002009E04B4965
:1015200030312068884202D14FF4002001E04FF0B2
:1015300000704649643908601FE14349483120681A
:1015400088425BD9404960392068884201D108202F
:1015500050E03E4960392068884201D1082049E0C6
:1015600039492068884201D1082043E03749206882
:10157000884201D108203DE033494839206888423B
:1015800001D1401536E0314948392068884201D1FF
:1015900040152FE02C4918312068884201D14015B0
:1015A00028E02A4918312068884201D1401521E0FD
:1015B000254930392068884202D14FF4002019E0D3
:1015C000224930392068884202D14FF4002011E0CE
:1015D0001D4930312068884202D14FF4002009E0D3
:1015E0001A4930312068884202D14FF4002001E0CE
:1015F0004FF00070154968390860BEE0124918398B
:10160000206888425DD9104960392068884201D13C
:10161000082052E00D4960392068884201D1082035
:101620004BE009492068884201D1082045E007497C
:101630002068884201D108203FE0034948392068EA
:10164000884205D1401538E0706002407064024065
:10165000FA492068884201D140152EE0F8492068F7
:10166000884201D1401528E0F44960312068884261
:1016700001D1401521E0F24948392068884202D161
:101680004FF4002019E0ED4918312068884202D15A
:101690004FF4002011E0EA4918312068884202D155
:1016A0004FF4002009E0E54978312068884202D1F2
:1016B0004FF4002001E04FF00070E1498839C86024
:1016C0005BE0DF4978392068884201D1082051E089
:1016D000DA4918392068884201D108204AE0D849FF
:1016E00018392068884201D1082043E0D3494831A5
:1016F0002068884201D108203CE0D1496039206847
:10170000884201D1401535E0CC492068884202D199
:1017100040152FE04EE3CA492068884201D14015A8
:1017200028E0C64960312068884201D1401521E097
:10173000C34948392068884202D14FF4002019E09B
:10174000BE4918312068884202D14FF4002011E0D0
:10175000BB4918312068884202D14FF4002009E0CB
:10176000B64978312068884202D14FF4002001E068
:101770004FF00070B24988398860B0493031206834
:1017800088425BD9AE4978392068884201D1AD489A
:1017900050E0AA4918392068884201D1A94849E097
:1017A000A74918392068884201D1A64842E0A349D8
:1017B00048312068884201D1A2483BE0A049603905
:1017C0002068884201D1801534E09C492068884215
:1017D00001D180152EE09A492068884201D18015F8
:1017E00028E0964960312068884201D1801521E0C7
:1017F000934948392068884202D14FF4802019E08B
:101800008E4918312068884202D14FF4802011E0BF
:101810008B4918312068884202D14FF4802009E0BA
:10182000864978312068884202D14FF4802001E057
:101830004FF0807081491C39086020E180493031C7
:10184000206888425BD97E4978392068884201D176
:101850007C4850E0794918392068884201D179489C
:1018600049E0774918392068884201D1754842E03B
:10187000724948312068884201D172483BE0704982
:1018800060392068884201D1801534E06B492068B6
:10189000884201D180152EE069492068884201D133
:1018A000801528E0654960312068884201D18015A3
:1018B00021E0634948392068884202D14FF48020F2
:1018C00019E05E4918312068884202D14FF4802027
:1018D00011E05B4918312068884202D14FF4802022
:1018E00009E0564978312068884202D14FF48020BF
:1018F00001E04FF08070514920390860BFE0504945
:101900003039206888425BD94D497839206888424F
:1019100001D14C4850E0494918392068884201D12A
:10192000484849E0464918392068884201D145486D
:1019300042E0424948312068884201D141483BE0B9
:101940003F4960392068884201D1801534E03B4925
:101950002068884201D180152EE0394920688842EC
:1019600001D1801528E0354960312068884201D1D5
:10197000801521E0324948392068884202D14FF46D
:10198000802019E02D4918312068884202D14FF497
:10199000802011E02A4918312068884202D14FF492
:1019A000802009E0254978312068884202D14FF42F
:1019B000802001E04FF0807021498839C8605EE0E6
:1019C0001F4978392068884201D11E4854E01B49DC
:1019D00018392068884201D11A484DE01849183951
:1019E0002068884201D1174846E0144948312068F0
:1019F000884201D113483FE011496039206888428C
:101A000001D1801538E00D492068884201D1801548
:101A100032E00B492068884201D180152CE007494B
:101A200060312068884201D1801525E00449483999
:101A30002068884208D14FF480201DE028640240CD
:101A40008860024004008000DF492068884202D19B
:101A50004FF4802010E0DD492068884202D14FF425
:101A6000802009E0D84960312068884202D14FF4D3
:101A7000802001E04FF08070D449A0398860D249BD
:101A80001831206888425BD9D04990392068884253
:101A900001D1CF4850E0CC4930392068884201D18B
:101AA000CB4849E0C94930392068884201D1C8484B
:101AB00042E0C54930312068884201D1C4483BE04A
:101AC000C24978392068884201D1402034E0BE49BB
:101AD00018392068884201D140202DE0BB491839CF
:101AE0002068884201D1402026E0B749483120686B
:101AF000884201D140201FE0B44960392068884203
:101B000002D14FF4803017E0AF492068884202D1FB
:101B10004FF4803010E0AD492068884202D14FF484
:101B2000803009E0A84960312068884202D14FF432
:101B3000803001E04FF48000A349343908601CE193
:101B4000A2491831206888425BD9A04990392068A1
:101B5000884201D19E4850E09B4930392068884234
:101B600001D19B4849E0994930392068884201D128
:101B7000974842E0944930312068884201D1944826
:101B80003BE0924978392068884201D1402034E016
:101B90008D4918392068884201D140202DE08B49B9
:101BA00018392068884201D1402026E08649483112
:101BB0002068884201D140201FE0844960392068B4
:101BC000884202D14FF4803017E07F492068884274
:101BD00002D14FF4803010E07C492068884202D165
:101BE0004FF4803009E0784960312068884202D1A2
:101BF0004FF4803001E04FF48000734938390860B9
:101C0000BBE072494839206888425BD96F499039F6
:101C10002068884201D16E4850E06B493039206815
:101C2000884201D16A4849E06849303920688842D1
:101C300001D1674842E0644930312068884201D1CF
:101C400063483BE0614978392068884201D14020EF
:101C500034E05D4918392068884201D140202DE0E8
:101C60005A4918392068884201D1402026E0564957
:101C700048312068884201D140201FE05349603933
:101C80002068884202D14FF4803017E04E49206826
:101C9000884202D14FF4803010E04C4920688842DD
:101CA00002D14FF4803009E0474960312068884212
:101CB00002D14FF4803001E04FF480004349A03955
:101CC000C8605AE0414990392068884201D14048B3
:101CD00050E03D4930392068884201D13C4849E014
:101CE0003A4930392068884201D1394842E03649C2
:101CF00030312068884201D135483BE0334978399A
:101D00002068884201D1402034E02F4918392068EA
:101D1000884201D140202DE02C49183920688842A2
:101D200001D1402026E0284948312068884201D16D
:101D300040201FE0254960392068884202D14FF4D5
:101D4000803017E020492068884202D14FF480306B
:101D500010E01E492068884202D14FF4803009E02B
:101D6000194960312068884202D14FF4803001E087
:101D70004FF480001549A03988602068006840F061
:101D80001600216808602068406940F080002168E2
:101D90004861206C08B9A06C28B12068006840F048
:101DA0000800216808602068006840F00100216890
:101DB000086006E000BF002084F8340000BF4FF048
:101DC00002094846FFF730B840640240A060024074
:101DD0000100800070B50446A56D00F06BFB06465F
:101DE00094F83500022808D08020606500BF0020EC
:101DF00084F8340000BF012070BD2068006820F026
:101E00001600216808602068406920F08000216881
:101E10004861206C08B9A06C28B12068006820F0E7
:101E20000800216808602068006820F0010021682F
:101E300008600FE000F03EFB801B05280AD9202037
:101E4000606500BF002084F8340000BF032084F8E0
:101E50003500D1E72068006800F001000028E9D1D2
:101E600094F85C103F208840A86000BF002084F8F0
:101E7000340000BF012084F835000020BCE7014693
:101E800091F83500022803D0802048650120704772
:101E9000052081F835000868006820F001000A6814
:101EA00010600020F3E70000F8B504460020009021
:101EB0008D4800684FF41651B0FBF1F7A56D2E6800
:101EC00094F85C1008208840304098B12068006881
:101ED00000F0040070B12068006820F00400216860
:101EE000086094F85C1008208840A860606D40F09D
:101EF0000100606594F85C107C488840304068B10F
:101F00002068406900F0800040B194F85C10774888
:101F10008840A860606D40F00200606594F85C1035
:101F20007248C01C8840304070B12068006800F0E2
:101F3000020048B194F85C106C48C01C8840A8604E
:101F4000606D40F00400606594F85C1010208840DB
:101F5000304078B32068006800F0080050B394F86F
:101F60005C1010208840A8602068006800F4802081
:101F700080B12068006800F4002028B9206CC8B146
:101F80002046216C884715E0A06C98B12046A16CD2
:101F900088470FE02068006800F4807028B9206846
:101FA000006820F0080021680860206C10B120460D
:101FB000216C884794F85C1020208840304000282D
:101FC00065D02068006800F0100000285FD094F809
:101FD0005C1020208840A86094F83500052828D19E
:101FE0002068006820F016002168086020684069B9
:101FF00020F0800021684861206C08B9A06C28B1ED
:102000002068006820F008002168086094F85C10DF
:102010003F208840A86000BF002084F8340000BF43
:10202000012084F83500206D10B12046216D8847CD
:10203000F8BD2068006800F4802080B12068006846
:1020400000F4002028B9606C10B12046616C88470C
:102050001DE0E06BD8B12046E16B884717E02068AF
:10206000006800F4807068B92068006820F01000F3
:102070002168086000BF002084F8340000BF012000
:1020800084F83500E06B10B12046E16B8847606D45
:1020900038B3606D00F00100F0B1052084F8350020
:1020A0002068006820F001002168086000BF0098E7
:1020B000401C0090B84200D905E02068006800F09C
:1020C00001000028F3D100BF00BF002084F83400D5
:1020D00000BF012084F83500E06C10B12046E16CAF
:1020E000884700BFA4E70000000000200100800036
:1020F0002DE9F0410446002500F0DCF9074614B94B
:102100000120BDE8F081606A00B100BF00BF00207F
:1021100084F8340000BF022084F83500206800688D
:1021200020F00100216808600AE000F0C3F9C01B3C
:10213000052805D920206065032084F83500E0E7F4
:102140002068006800F001000028EED120680568D2
:1021500020480540D4E901010843E16808432169AA
:10216000084361690843A1690843E1690843216A9A
:1021700008430543606A042803D1D4E90B010843EE
:102180000543206805602068456925F00705606AF9
:102190000543606A04280BD1A06A05432046FEF778
:1021A00053FB28B140206065012084F83500A8E782
:1021B000206845612046FEF72DFB064694F85C102A
:1021C0003F208840B06000206065012084F8350021
:1021D000002096E73F8010E02DE9F04704460D46C9
:1021E00016461F464FF00008D4F8589000BF94F8E8
:1021F0003400012802D10220BDE8F087012084F8D4
:10220000340000BF94F8350001282BD1022084F857
:102210003500002060653B46324629462046FEF7E1
:1022200080FB94F85C103F208840C9F808002068C3
:10223000006840F01600216808602068406940F09E
:10224000800021684861206C28B12068006840F057
:102250000800216808602068006840F001002168DB
:10226000086006E000BF002084F8340000BF4FF093
:1022700002084046C0E731B5002400F01BF90446CF
:1022800000BF00F017F9001B00998842F9D338BD50
:10229000F8B502460B46002100250024002000BFAF
:1022A000E4E0012606FA01F51E6806EA0504AC42E0
:1022B00071D15E68022E02D05E68122E13D1CF0853
:1022C00002F1200656F827004E07F70E0F26BE40F3
:1022D000B0434F07FF0E1E69BE403043CF0802F1E6
:1022E000200646F8270010684F000326BE40B04382
:1022F0001E7906F003064F00BE40304310605E6852
:10230000012E08D05E68022E05D05E68112E02D024
:102310005E68122E13D190684F000326BE40B04372
:102320004F00DE68BE4030439060506801268E400A
:10233000B0431E79C6F300168E4030435060D0681B
:102340004F000326BE40B0434F009E68BE4030435E
:10235000D0605E6806F08056B6F1805FA8D100BFFD
:10236000444E366846F48046424F3E603E463668EC
:1023700006F48046009600BF00BF3F4E8F0856F817
:1023800027008E07370F0F26BE40B0433B4EB242A8
:1023900002D100262EE068E0394EB24201D101267A
:1023A00028E0384EB24201D1022623E0364EB24236
:1023B00001D103261EE0354EB24201D1042619E0B8
:1023C000334EB24201D1052614E0324EB24201D161
:1023D00006260FE0304EB24201D107260AE02F4E0A
:1023E000B24201D1082605E02D4EB24201D10926A4
:1023F00000E00A268F073F0FBE4030431E4E8F0875
:1024000046F82700274E3068A0435E6806F4803601
:10241000B6F5803F00D12043224E3060361D306833
:10242000A0435E6806F40036B6F5003F00D12043B5
:102430001C4E361D3060361D3068A0435E6806F4C1
:102440008016B6F5801F00D12043164E0836306046
:10245000361D3068A0435E6806F40016B6F5001F0E
:1024600000D120430F4E0C363060491C1029FFF478
:1024700018AFF8BD4438024008380140000002405F
:102480000004024000080240000C0240001002401C
:102490000014024000180240001C024000200240CC
:1024A00000240240003C01400AB1816101E00B04BC
:1024B00083617047014800687047000028010020D0
:1024C000024692F8410020282DD100BF92F840002A
:1024D000012801D102207047012082F8400000BF8E
:1024E000242082F841001068006820F00100136881
:1024F00018601068006820F4805013681860106835
:1025000000680843136818601068006840F0010014
:1025100013681860202082F8410000BF002082F874
:10252000400000BFD7E70220D5E7000010B5044601
:102530000CB9012010BD94F8410028B9002084F89E
:102540004000204600F00AF9242084F84100206869
:10255000006820F0010021680860606820F0706069
:10256000216808612068806820F400402168886044
:10257000A06868B1E068012805D1A06840F4004077
:102580002168886004E0A06840F404402168886005
:10259000E068022802D18002216848602068406813
:1025A0001049084321684860D4E904010843A1693F
:1025B00040EA01202168C860D4E907010843216886
:1025C00008602068006840F0010021680860002071
:1025D0006064202084F841000020206384F84200D9
:1025E00000BFA7E7008000022DE9F84304468946B2
:1025F00016461F46DDF82080002594F8410020286B
:1026000077D100BF94F84000012802D10220BDE834
:10261000F883012084F8400000BFFFF74BFF054618
:1026200019230122D1032046009502F0F7FD08B1DD
:102630000320ECE7212084F84100102084F84200B8
:1026400000206064666267856063608DFF280CD936
:10265000FF2020854FF40050009094F82820C302FA
:102660004946204602F0C2FD0BE0608D20854FF404
:102670000050009094F8282003034946204602F0B9
:10268000B5FD43E02A464146204602F01DFE30B12A
:10269000606C042801D10120B9E70320B7E7616A23
:1026A000481C6062087821688862608D401E6085E1
:1026B000208D401E2085208D40BB608D30B3434669
:1026C000002280212046009502F0A8FD08B10320D9
:1026D0009DE7608DFF280DD9FF2020850020009008
:1026E00094F828204FF080734946204602F07EFD82
:1026F0000CE02FE0608D20850020009094F82820C9
:102700004FF000734946204602F070FD208D0028EE
:10271000B8DC2A464146204602F0ABFD30B1606C81
:10272000042801D1012072E7032070E720202168EE
:10273000C861206840680849084021684860202036
:1027400084F84100002084F8420000BF84F8400073
:1027500000BF5CE702205AE700E800FE10B586B033
:1027600004463249206888421CD14FF440700190E1
:102770001220029001200390032004900420059071
:1027800001A92B48FFF784FD00BF2A48006840F4E8
:102790000010284908600846006800F40010009006
:1027A00000BF41E02449206888421CD14FF4C0702A
:1027B0000190122002900120039003200490042035
:1027C000059001A91D48FFF763FD00BF1948006887
:1027D00040F40000174908600846006800F4000053
:1027E000009000BF20E01649206888421CD14FF4B9
:1027F0004050019012200290012003900320049089
:102800000420059001A90F48FFF742FD00BF0948C9
:10281000006840F08070074908600846006800F0D2
:102820008070009000BF00BF06B010BD0054004093
:102830000004024040380240005C0040001C02409E
:1028400000600040000C02402DE9F04704464FF0C4
:102850000008022600274FF0010A0025A94614B9F6
:102860000120BDE8F08794F8390028B9002084F8E9
:102870003800204600F074F8022084F839002068FF
:10288000C06940F6BF7188432168C8610220216891
:1028900008622068C0691FFA80F86069022802D1C6
:1028A0000027022637E0E06810B94FF0010A01E086
:1028B0004FF0020AE069012802D1DFF8A09003E09E
:1028C000204602F02FFD81462069B0F5007F0AD135
:1028D0004FEA192000EB800041006069B1FBF0F085
:1028E000401D85B20BE04FEA4A10B9FBF0F000EB57
:1028F000800041006069B1FBF0F0401D85B20A2004
:10290000B5FBF0F505F00107E81BC0F34F064FF6E5
:10291000FF7000EA0727022E01DBFF2E01DD0226F1
:102920000027208A80B23843304321680862A0899A
:10293000218B084321890843A188084380B240F4D1
:10294000006040EA08082068C0F81C800020E063AE
:10295000012084F83900002083E700000080BB00DC
:1029600010B586B0044617492068884228D100BFB8
:102970001548006840F48040134908600846006824
:1029800000F48040009000BF00BF4FF4C0500190A1
:10299000022002900020039004900520059001A9D8
:1029A0000A48FFF775FC08200190022002900020E1
:1029B000039004900520059001A90548FFF768FCE5
:1029C00006B010BD00380040403802400000024010
:1029D0000020024002480068401C0149086070471E
:1029E0002801002010B5032000F0ECF9002000F0D1
:1029F00005F800F071F9002010BD000070B5044624
:102A0000074800684FF47A71B0FBF1F5284602F0F0
:102A1000D2FA00222146501E00F096F9002070BD27
:102A20000000002070B504460E46154600BF94F81D
:102A3000A000012801D1022070BD012084F8A0006F
:102A400000BF022084F8A10005EB850101EBC5025F
:102A500004F1380101EB820034223146FDF7CAFC53
:102A60002A463146204602F097FC01202168486240
:102A700084F8A10000BF002084F8A00000BF00BFC0
:102A8000DAE7000070B50446002500260CB90120E5
:102A900070BD94F8A10028B9002084F8A000204659
:102AA00000F084F8022084F8A1002068806920F0FA
:102AB000704021688861D4E901010843E168084356
:102AC0002169084321688969084321688861206871
:102AD00080683549084021688860A08A050420681C
:102AE0008068A16929430843216888602068C0681C
:102AF0002D4908402168C860A08B05042068C06883
:102B0000216A294308432168C86020680069264972
:102B1000084021680861A08C050420680069A16A4A
:102B20002943084321680861206840691E4908401C
:102B300021684861A08D050420684069216B294304
:102B400008432168486194F83500050294F836007E
:102B500006042068C06A00F07F402168C86246EA27
:102B6000050094F8341008432168C96A08432168B5
:102B7000C8622068406B40F0040021684863206808
:102B8000406B40F00200216848632068806940F093
:102B90000100216888610020C4F8A400012084F8A5
:102BA000A100002074E7000000F800F010B586B026
:102BB000044640492068884279D100BF3E480068F9
:102BC00040F080603C4908600846006800F0806082
:102BD000009000BF00BF6020019002200290002002
:102BE000039004900E20059001A93448FFF750FB94
:102BF0004FF23A00019002200290002003900490CE
:102C00000E20059001A92E48FFF742FBE02001901D
:102C1000022002900020039004900E20059001A94C
:102C20002848FFF735FB4FF48050019002200290B6
:102C30000020039004900920059001A92248FFF785
:102C400027FB0820019002200290002003900490AE
:102C50000E20059001A91D48FFF71AFB4CF22360D6
:102C60000190022002900020039004900E20059015
:102C700001A91748FFF70CFB4EF208200190022033
:102C800002900020039004900E20059001A91148A5
:102C9000FFF7FEFA402001900220029000200390EE
:102CA00004900E20059001A90748FFF7F1FA06B03D
:102CB00010BD00000068014044380240001002408E
:102CC000002402400028024000180240000C02408C
:102CD00000200240001C024010B5032000F072F8F2
:102CE000002211466FF00B0000F02EF80022114672
:102CF0006FF00A0000F028F8002211466FF009007A
:102D000000F022F800221146501F00F01DF80022AA
:102D10001146101F00F018F800221146901E00F016
:102D200013F800221146501E00F00EF810BD00BF2F
:102D300000F01F02012191404209920002F1E022BD
:102D4000C2F8001100BF70472DE9F05F80460D46C4
:102D50001646002703F0A0FA074639462A463346AE
:102D600001F00700C0F1070ABAF1040F02D94FF0D1
:102D7000040A01E0C0F1070AD14600F1040ABAF1E1
:102D8000070F02D24FF0000A01E0A0F1030AD44677
:102D90004FF0010A0AFA09FAAAF1010A0AEA020A3C
:102DA0000AFA0CFA4FF0010B0BFA0CFBABF1010B1A
:102DB0000BEA030B4AEA0B042146404603F074FA7F
:102DC000BDE8F09F00BF00F00702064B19684FF600
:102DD000FF031940044B0B4343EA0221014B1960E6
:102DE00000BF70470CED00E00000FA0501460A68DC
:102DF0000120C1F8B803002081F8B003906940F0C9
:102E000000609061506D024B184350650020704780
:102E10000300001070B504460D4615B1012D2CD1EC
:102E200016E0206A38B104F0E1FA1548006820F095
:102E30000600134908602068D0F8000E20F0010059
:102E40002168C1F8000ED4F8BC0305F053FB14E070
:102E50002068D0F8000E40F001002168C1F8000E93
:102E6000D4F8BC0305F0B5FB206A28B1044800681B
:102E700040F006000249086000BF00BF70BD0000BE
:102E800010ED00E002461068416200207047F0B586
:102E900003461446002500221868426A21B942EA16
:102EA00004401E68B06219E01868806A02EB1042A4
:102EB000002508E0186800F5827050F8250002EB44
:102EC0001042681CC5B2481EA842F3DC42EA04471F
:102ED000186800F582704E1E40F826700020F0BD84
:102EE00010B50446D4F8BC0305F043FA10BD70B524
:102EF00004460D46C5EBC50304F1340101EB830123
:102F0000CA682946D4F8BC0305F083F970BD70B5D2
:102F100004460D46C5EBC50304F5EC7101EB8301D6
:102F2000CA682946D4F8BC0305F0E0F970BD10B5B5
:102F30000446D4F8BC0305F01FFA10BD70B5044672
:102F40000D4605F08000802808D105F07F00C0EB19
:102F5000C00104F1340000EB810607E005F07F00BA
:102F6000C0EBC00104F5EC7000EB810605F07F00BA
:102F7000307005F08000C009707000BF94F87C03C9
:102F8000012801D1022070BD012084F87C0300BF1C
:102F90003146206805F020FF00BF002084F87C0344
:102FA00000BF00BFEFE770B504460D4605F0800096
:102FB000802808D105F07F00C0EBC00104F1340087
:102FC00000EB810605E0C5EBC50104F5EC7000EBF4
:102FD00081060020B07005F07F003070C5F3C0108E
:102FE000707000BF94F87C03012801D1022070BDED
:102FF000012084F87C0300BF3146206806F036F9D2
:1030000000BF002084F87C0300BF00BFEFE770B56D
:1030100004460D4600BF94F87C03012801D102202C
:1030200070BD012084F87C0300BF05F0800080287B
:1030300005D105F07F01206806F028FB02E020683A
:1030400006F00EFB00BF002084F87C0300BF00BF29
:10305000E6E7024601F07F00C0EBC00302F5EC702A
:1030600000EB8300008B80B270472DE9F0470546E6
:103070000E4690461F464FF0000906F0800080285B
:1030800008D106F07F00C0EBC00105F1340000EB71
:10309000810407E006F07F00C0EBC00105F5EC708D
:1030A00000EB810406F07F00207006F08000C0096C
:1030B0006070C4F80880E770607808B12078E0801C
:1030C000022F01D10020207100BF95F87C03012858
:1030D00002D10220BDE8F087012085F87C0300BF03
:1030E0002146286805F096FD00BF002085F87C0386
:1030F00000BF4846EEE72DE9F04104460E4617466C
:10310000984606F07F00C0EBC00104F5EC7000EBC0
:103110008105EF60C5F814800020A861687006F092
:103120007F0028702069012800D12F6100BF94F82A
:103130007C03012802D10220BDE8F081012084F83F
:103140007C0300BF06F07F0028B9227C2946206856
:1031500005F092FF04E0227C2946206806F010F971
:1031600000BF002084F87C0300BF00BFE4E770B517
:1031700004460D4605F08000802808D105F07F0048
:10318000C0EBC00104F1340000EB810605E0C5EBA3
:10319000C50104F5EC7000EB81060120B07005F06C
:1031A0007F003070C5F3C010707000BF94F87C03CE
:1031B000012801D1022070BD012084F87C0300BFEA
:1031C0003146206806F096F805F07F0028B9217C8A
:1031D00004F56072206806F027F800BF002084F82C
:1031E0007C0300BF00BFE6E72DE9F04104460E4630
:1031F0001746984606F07F00C0EBC00104F134008A
:1032000000EB8105EF60C5F814800020A861012063
:10321000687006F07F0028702069012800D12F61B6
:1032200000BF94F87C03012802D10220BDE8F081A0
:10323000012084F87C0300BF06F07F0028B9227CBF
:103240002946206805F018FF04E0227C2946206802
:1032500006F096F800BF002084F87C0300BF00BF92
:10326000E4E700002DE9FC5F044626684FF0000B00
:103270000020019080460025009081468246FE4F46
:10328000206806F03DFA002868D1206806F070FA40
:1032900008B9BDE8FC9F206806F06AFA00F0020059
:1032A000022801D121684861206806F061FA00F423
:1032B0000020B0F5002F7DD10025206806F02EFA01
:1032C000019082E0019800F00100002879D0E9B275
:1032D000206806F042FA804608F00100E8B30121B8
:1032E00006F5306000EB45108160206901282BD184
:1032F000C5EBC50104F5EC7000EB8100816806F5B3
:10330000306000EB45100069C0F31200091AC5EBEC
:10331000C50204F5EC7000EB82008161C5EBC501CC
:1033200004F5EC7000EB8100C5EBC502C16804F543
:10333000EC7000EB820080680144C5EBC50204F527
:10334000EC7000EB8200C160E9B22046FFF7DFFDC0
:103350002069012811D105B901E00EE0DAE2C5EBE0
:10336000C50104F5EC7000EB8100406928B904F553
:1033700060720121206805F057FF08F00800082856
:1033800008D1204600F068FC082106F5306000EB0B
:103390004510816008F01000102805D1102106F5B5
:1033A000306000EB4510816008F02000202808D133
:1033B000202101E00DE004E006F5306000EB45104F
:1033C00081606D1C019840080190019800287FF4ED
:1033D00079AF206806F0CCF900F48020B0F5802F9A
:1033E0007DD1206806F091F90190002585E00198D3
:1033F00000F0010000287CD0E9B2206806F097F9BF
:10340000804608F00100E8B30120A840009040F693
:10341000340080590099884340F6340188510121D5
:1034200006F5106000EB451081602069012815D178
:10343000C5EBC50104F1340000EB8100C5EBC5020A
:10344000C16804F1340000EB820080680144C5EBE0
:10345000C50204F1340000EB8200C160E9B22046ED
:10346000FFF745FD2069012810D15DB9C5EBC50105
:1034700004F1340000EB8100406918B904F5607272
:10348000012100E002E0206805F0CEFE08F008000F
:10349000082805D1082106F5106000EB4510816071
:1034A00008F01000102805D1102106F5106000EB7F
:1034B0004510816008F04000402805D1402106F504
:1034C000106000EB4510816008F00200022805D171
:1034D000022106F5106000EB4510816001E010E06C
:1034E00007E008F08000802803D12946204602F03A
:1034F00073FF6D1C019840080190019800287FF42B
:1035000076AF206806F034F900F00040B0F1004FCB
:103510001AD140F60400805920F0010140F6040061
:10352000815194F8B003012807D1002084F8B0033A
:1035300000212046FFF76EFC02E0204600F065FB0C
:103540004FF0004021684861206806F011F900F44E
:103550000060B0F5006F0CD140F60800805900F013
:10356000010010B1204600F09BFB4FF40060216881
:103570004861206806F0FCF800F00060B0F1006FD0
:1035800017D14FF000602168486194F8B00368B922
:10359000012084F8B0032068406DC0F38300C4F8B4
:1035A000B40301212046FFF735FC02E0204600F07D
:1035B00077FB206806F0DCF800F48050B0F5805FFF
:1035C0005DD140F60400805920F0010140F604006E
:1035D00081510021206806F059F84FF0000B0CE0F3
:1035E000FF2106F5106000EB4B10816006F530609E
:1035F00000EB4B1081600BF1010B60685845EFD870
:103600004FF0FF3140F618008151001D805940F005
:10361000011140F61C008151E06A70B1D6F88408AF
:1036200040F00B01C6F8841840F64400805940F081
:103630000B0140F6440081510EE040F61400805921
:1036400040F02B0140F614008151001F805940F0DA
:103650000B014FF401608151D6F8000820F4FE60A0
:10366000C6F80008217C04F56072206805F0DCFDD6
:103670004FF48050216801E000C2EB0B48612068E4
:1036800006F076F800F40050B0F5005F7AD12068BB
:1036900005F022FB2068C06820F470502168C860E3
:1036A000206806F00BF858B90021E1604FF4007172
:1036B00061612068C06840F410502168C86082E0F1
:1036C0000321E1604021616101F0E6F8074692487C
:1036D000874209D39148874206D22068C06840F4E7
:1036E00070502168C8606EE08C48874209D38C48CE
:1036F000874206D22068C06840F460502168C860E4
:1037000061E08748874209D38648874206D220680D
:10371000C06840F450502168C86054E08148874236
:1037200009D38148874206D22068C06840F44050DF
:103730002168C86047E07C48874209D37B488742BC
:1037400006D22068C06840F430502168C8603AE072
:103750007648874209D37648874206D22068C068F7
:1037600040F420502168C8602DE0714887420AD398
:103770007048874207D22068C06840F41050216822
:10378000C86020E026E06B48874209D36A48874238
:1037900006D22068C06840F400502168C86012E07A
:1037A0006548874209D36548874206D22068C068C9
:1037B00040F4E0502168C86005E02068C06840F42B
:1037C000C0502168C860204600F006FA4FF400504F
:1037D00021684861206805F0CBFF00F01000102838
:1037E00045D12068806920F0100021688861D6F8F2
:1037F000209009F00F00C0EBC00104F5EC7000EB65
:10380000810AC9F3434002281AD147F6F07009EA49
:10381000000030B3C9F30A123046DAF80C1005F094
:10382000ADFFC9F30A11DAF80C000844CAF80C001D
:10383000C9F30A11DAF818000844CAF8180010E0B1
:10384000C9F3434006280CD1082204F560713046C4
:1038500005F094FFC9F30A11DAF818000844CAF811
:1038600018002068806940F0100021688861206895
:1038700005F07EFF00F00800082805D1204600F082
:10388000CBF9082021684861206805F071FF00F439
:103890008010B0F5801F07D1E9B2204600F050F843
:1038A0004FF4801021684861206805F061FF00F442
:1038B0000010B0F5001F07D1E9B2204600F049F82A
:1038C0004FF4001021684861206805F051FF00F0B6
:1038D0008040B0F1804F06D12046FFF701FB4FF04A
:1038E000804021684861206805F042FF00F0040034
:1038F00004280FD12068D0F8049009F004000428AF
:1039000002D12046FFF713FB2068406840EA090017
:103910002168486000BFBCE4C0ACD800C0E1E4004E
:103920000024F40080730601A0491A01002D310122
:1039300040A44C0100366E0120ABA6010048E8010E
:1039400070B504460D462946D4F8BC0304F08AFD40
:1039500070BD70B504460D462946D4F8BC0304F08A
:1039600084FD70BD30B589B00446002514B901202E
:1039700009B030BD032084F87D03204600F09AF89A
:10398000206805F071FB242204F110016846FCF761
:1039900031FD94E80F0005F0C1F90021206805F021
:1039A00001FF002530E00121C5EBC50204F1340020
:1039B00000EB82004170C5EBC50204F1340000F851
:1039C0002250C5EBC50200EB8200C5800021C5EB8B
:1039D000C50204F1340000EB8200C170C5EBC502E2
:1039E00004F1340000EB82008160C5EBC50204F1F4
:1039F000340000EB8200C160C5EBC50204F1340065
:103A000000EB820041616D1C0F2DCCD3002536E008
:103A10000021C5EBC50204F5EC7000EB820041709B
:103A2000C5EBC50204F5EC7000F82250C5EBC502E9
:103A300004F1340000EB8200C580C5EBC50204F53B
:103A4000EC7000EB8200C170C5EBC50204F5EC70B0
:103A500000EB82008160C5EBC50204F5EC7000EB61
:103A60008200C160C5EBC50204F5EC7000EB82007A
:103A70004161206800F5827040F825106D1C0F2D03
:103A8000C6D3242204F110016846FCF7B3FC94E885
:103A90000F0005F013FA012084F87D03606A012805
:103AA00002D12046FFF7A2F9206805F0F8F90020BE
:103AB0005EE7000010B586B00446404920688842A1
:103AC0007AD143F623400190022002900020039017
:103AD000032004900A20059001A93948FEF7D8FB7D
:103AE0004FF4006001900220029000200390032018
:103AF00004900A20059001A93248FEF7C9FB102066
:103B000001900220029000200390032004900A20DC
:103B1000059001A92C48FEF7BBFB01200190022073
:103B2000029000200390032004900A20059001A930
:103B30002648FEF7ADFB28200190022002900020CD
:103B40000390032004900A20059001A92048FEF765
:103B50009FFB00BF1F48006840F000501D490860EF
:103B60000846006800F00050009000BF00BF00BF92
:103B70000846006840F0804008600846006800F091
:103B80008040009000BF00BF002211464A20FFF78E
:103B9000DBF84A20FFF7CBF8002211464B20FFF755
:103BA000D3F84B20FFF7C3F8002211464D20FFF752
:103BB000CBF84D20FFF7BBF806B010BD0000044065
:103BC0000004024000200240001C024000080240A5
:103BD000000002403038024070B504460125E0681C
:103BE00010B1022804D101E0002503E0012501E025
:103BF000012500BF00BF2946D4F8BC0304F092FCA5
:103C0000D4F8BC0304F054FC70BD10B50446D4F8DD
:103C1000BC0304F06FFC10BD10B50446D4F8BC031F
:103C200004F06FFC10BD70B504460D4600BF94F85B
:103C30007C03012801D1022070BD012084F87C039F
:103C400000BF2946206805F0C5FD00BF002084F8AC
:103C50007C0300BF00BFEFE710B5044604F56071B8
:103C6000D4F8BC0304F06CFC10BD10B5044600BFD2
:103C700094F87C03012801D1022010BD012084F8B2
:103C80007C0300BF206805F0FBF8206805F0E0FC2D
:103C900000BF002084F87C0300BF00BFEDE70000F8
:103CA00010B50446D4F8BC0304F093FC2068D0F8A7
:103CB000000E40F001002168C1F8000E206A28B112
:103CC0000348006840F006000149086010BD00008C
:103CD00010ED00E038B5002400BF2048006840F037
:103CE00080501E4908600846006800F0805000902F
:103CF00000BF00BF1A48006840F4803018490860CF
:103D0000FEF7D8FB044607E0FEF7D4FB001BB0F536
:103D10007A7F01D9032038BD1148406800F4803013
:103D2000B0F5803FF0D10E48006840F400300C49F7
:103D30000860FEF7BFFB044607E0FEF7BBFB001B75
:103D4000B0F57A7F01D90320E5E70548406800F423
:103D50000030B0F5003FF0D10020DCE740380240F1
:103D6000007000402DE9F843044600260025002796
:103D7000A846A946207800F0010088B100BFFE489F
:103D8000006820F40000FC49086008460068616B88
:103D90000843F949086000BF606B08B94FF001089B
:103DA000206800F40020B0F5002F13D1F2488430D1
:103DB000006820F44010E16B0843EF49843108604B
:103DC000E06BB0F5801F01D14FF00108E06B08B93E
:103DD0004FF00109206800F48010B0F5801F13D166
:103DE000E5488430006820F44000216C0843E24933
:103DF00084310860206CB0F5800F01D14FF00108CC
:103E0000206C08B94FF00109206800F08070B0F113
:103E1000807F01D14FF00108207800F02000202899
:103E200070D100BFD4483830006840F08050D2498B
:103E3000383108600846006800F08050009000BFEC
:103E400000BFCE48006840F48070CC490860FEF79F
:103E500031FB064607E0FEF72DFB801B642802D9E4
:103E60000320BDE8F883C548006800F4807000288E
:103E7000F1D0C1486830006800F4407585B3208EE9
:103E800000F44070A8422BD0BB486830006820F492
:103E90004075B9486830006840F48030B6496831F0
:103EA00008600846006820F4803008600846056015
:103EB000006800F0010098B1FEF7FCFA064608E041
:103EC000FEF7F8FA801B41F28831884201D90320BD
:103ED000C7E7A94868300068C0F340000028EFD069
:103EE00000BF208E00F44070B0F5407F0BD1A24897
:103EF000006820F4F810A24A216B114008439E4943
:103F0000086006E010E09C48006820F4F8109A4928
:103F10000860994868300068218EC1F30B0108439E
:103F200095496831086000BF207800F01000102823
:103F300010D100BF90488430006820F080708E4916
:103F40008431086008460068A16B08438A498431BF
:103F5000086000BF208800F48040B0F5804F09D190
:103F600085488830006820F44030616E08438249FB
:103F700088310860208800F40040B0F5004F09D176
:103F80007D488830006820F44020A16E08437A49BB
:103F900088310860206800F48030B0F5803F09D196
:103FA00075488830006820F44010E16E084372497B
:103FB00088310860206800F40030B0F5003F09D176
:103FC0006D488830006820F44000216F08436A493A
:103FD00088310860207800F04000402809D1664808
:103FE0008830006820F00300616C08436249883122
:103FF0000860207800F08000802809D15E48883071
:10400000006820F00C00A16C08435B49883108600F
:10401000208800F48070B0F5807F09D15648883040
:10402000006820F03000E16C084353498831086093
:10403000208800F40070B0F5007F09D14E48883028
:10404000006820F0C000216D08434B4988310860AA
:10405000208800F48060B0F5806F09D14648883030
:10406000006820F44070616D08434349883108605E
:10407000208800F40060B0F5006F09D13E48883018
:10408000006820F44060A16D08433B498831086016
:10409000208800F48050B0F5805F09D13648883020
:1040A000006820F44050E16D0843334988310860CE
:1040B000208800F40050B0F5005F09D12E48883008
:1040C000006820F44040216E08432B498831086085
:1040D000206800F48000B0F5800F09D126488830B0
:1040E000006820F08060A16F084323498831086090
:1040F000206800F40010B0F5001F0FD11E48883072
:10410000006820F00060E16F08431B4988310860B7
:10411000E06FB0F1006F01D14FF00109207800F09D
:104120000800082801D14FF00109206800F4802020
:10413000B0F5802F09D110488830006820F0407019
:10414000616F08430C4988310860206800F4000062
:10415000B0F5000F0AD108488830006820F0805080
:10416000D4F880100843044988310860206800F0C2
:104170008060B0F1806F05E00838024000700040B8
:10418000FFFCFF0F08D1FE48006820F00050D4F873
:1041900084100843FA490860206800F00060B0F11C
:1041A000006F0AD1F648001F006820F00070D4F8B4
:1041B00088100843F249091F0860206800F0805009
:1041C000B0F1805F0AD1EE48001F006820F08060E7
:1041D000D4F88C100843EA49091F0860B8F1010FB0
:1041E00003D02068B0F1007F7DD1E54890380068A9
:1041F00020F08060E24990390860FEF75BF90646DE
:1042000006E0FEF757F9801B642801D9032028E651
:10421000DB4890380068C0F3C0600028F1D12078F6
:1042200000F00100F0B3606BE0BBD5480C380068CB
:1042300000F440304FF4403191FAA1F1B1FA81F12C
:1042400020FA01F5CE480C38006800F070604FF09D
:10425000706191FAA1F1B1FA81F120FA01F747F604
:10426000C07191FAA1F1B1FA81F1606888404FF410
:10427000403191FAA1F1B1FA81F105FA01F1084357
:104280004FF0706191FAA1F1B1FA81F107FA01F1F1
:1042900008434FF0E04292FAA2F2B2FA82F2A16829
:1042A000914000E003E00843B5490C3908602068FC
:1042B00000F40020B0F5002F03D1E06BB0F5801FB3
:1042C00009D0206800F48010B0F5801F50D1206C18
:1042D000B0F5800F4CD1AA480C38006800F440308B
:1042E0004FF4403100E0CFE091FAA1F1B1FA81F151
:1042F00020FA01F5A2480C38006800F0E0404FF0C9
:10430000E04191FAA1F1B1FA81F120FA01F747F603
:10431000C07191FAA1F1B1FA81F1606888404FF45F
:10432000403191FAA1F1B1FA81F105FA01F10843A6
:104330004FF0706292FAA2F2B2FA82F2E168914012
:1043400008434FF0E04191FAA1F1B1FA81F107FA87
:1043500001F108438A490C3908608948001F006848
:1043600020F01F00616A491E08438549091F086043
:10437000206800F08070B0F1807F3FD180480C3819
:10438000006800F070604FF0706191FAA1F1B1FA2D
:1043900081F120FA01F57A480C38006800F0E0401D
:1043A0004FF0E04191FAA1F1B1FA81F120FA01F761
:1043B00047F6C07191FAA1F1B1FA81F160688840C5
:1043C0004FF4403292FAA2F2B2FA82F2216991409D
:1043D00008434FF0706191FAA1F1B1FA81F105FA49
:1043E00001F108434FF0E04191FAA1F1B1FA81F1F6
:1043F00007FA01F1084362490C390860206800F0AF
:104400000070B0F1007F25D147F6C07191FAA1F19B
:10441000B1FA81F1606888404FF4403292FAA2F21A
:10442000B2FA82F22169914008434FF0706292FA29
:10443000A2F2B2FA82F2E168914008434FF0E04202
:1044400092FAA2F2B2FA82F2A168914008434C4972
:104450000C3908604A489038006840F0806048494C
:1044600090390860FEF726F8064606E0FEF722F8C7
:10447000801B642801D90320F3E441489038006888
:10448000C0F3C0600028F1D0B9F1010F69D13C48F8
:104490009038006820F08050394990390860FEF764
:1044A00009F8064606E0FEF705F8801B642801D9E6
:1044B0000320D6E4324890380068C0F340700028EA
:1044C000F1D1206800F40020B0F5002F01D1E06B9D
:1044D00038B1206800F48010B0F5801F4FD1206CF7
:1044E000F0BB27480838006800F440304FF44031F2
:1044F00091FAA1F1B1FA81F120FA01F520480838CA
:10450000006800F0E0404FF0E04191FAA1F1B1FA0B
:1045100081F120FA01F747F6C07191FAA1F1B1FAE1
:1045200081F1606988404FF4403191FAA1F1B1FA0C
:1045300081F105FA01F108434FF0706292FAA2F29C
:10454000B2FA82F2A169914008434FF0E04191FA3A
:10455000A1F1B1FA81F107FA01F10843084901E03C
:104560000DE0BBE008390860081D006820F4F85130
:10457000A06A401E41EA00200149091F086001E0CD
:1045800090380240206800F40010B0F5001F40D1C0
:10459000E06FB0F1006F3CD15148006800F07060EE
:1045A0004FF0706191FAA1F1B1FA81F120FA01F5B1
:1045B0004B48006800F0E0404FF0E04191FAA1F173
:1045C000B1FA81F120FA01F747F6C07191FAA1F131
:1045D000B1FA81F1606988404FF4403292FAA2F258
:1045E000B2FA82F2216A914008434FF0706191FA69
:1045F000A1F1B1FA81F105FA01F108434FF0E04170
:1046000091FAA1F1B1FA81F107FA01F108433449B5
:104610000860207800F00800082845D1304800687C
:1046200000F070604FF0706191FAA1F1B1FA81F180
:1046300020FA01F52A48006800F440304FF4403178
:1046400091FAA1F1B1FA81F120FA01F747F6C071B0
:1046500091FAA1F1B1FA81F1606988404FF44031DB
:1046600091FAA1F1B1FA81F107FA01F108434FF093
:10467000706191FAA1F1B1FA81F105FA01F10843F3
:104680004FF0E04292FAA2F2B2FA82F2E16991406E
:10469000084313490860081D006820F44030E16AAF
:1046A00008430F49091D08600D488838006840F02C
:1046B00080500B4988390860FDF7FCFE064606E08D
:1046C000FDF7F8FE801B642801D903209FE504480C
:1046D00088380068C0F340700028F1D0002096E5CB
:1046E0008838024070B504460D46002666480068CA
:1046F00000F00F00A8420ED26348006820F00F00BF
:104700002843614908600846006800F00F00A8428D
:1047100001D0012070BD207800F00200022807D1EE
:104720005A48006820F0F000A16808435749086023
:10473000207800F00100002860D06068012807D1CF
:10474000524808380068C0F34040A0B90120E1E7B2
:104750006068022807D14D4808380068C0F34060FF
:1047600048B90120D6E7494808380068C0F340003E
:1047700008B90120CEE74548006820F003006168D1
:10478000084342490860FDF795FE06466068012827
:1047900010D108E0FDF78EFE801B41F2883188427F
:1047A00001D90320B6E73948006800F00C0004285E
:1047B000F0D123E06068022810D108E0FDF77AFE0E
:1047C000801B41F28831884201D90320A2E72F489B
:1047D000006800F00C000828F0D10FE008E0FDF7B9
:1047E00069FE801B41F28831884201D9032091E79C
:1047F0002648006800F00C000028F0D1224800682C
:1048000000F00F00A8420ED91F48006820F00F00EA
:1048100028431D4908600846006800F00F00A842C0
:1048200001D0012076E7207800F00400042807D1A9
:104830001648006820F4E050E16808431349086016
:10484000207800F00800082808D11048006820F4FB
:104850006040216940EAC1000C49086000F04EF850
:104860000A49096801F0F001F02292FAA2F2B2FAC4
:1048700082F2D140064A515CC840064908600020D7
:10488000FEF7BCF8002045E7003C02400838024033
:10489000D6C20008000000200148006870470000F0
:1048A0000000002000B5FFF7F7FF0749096801F491
:1048B000E0514FF4E05292FAA2F2B2FA82F2D14001
:1048C000024A515CC84000BD08380240E6C20008F8
:1048D00000B5FFF7E1FF0749096801F460414FF4B3
:1048E000604292FAA2F2B2FA82F2D140024A515CDC
:1048F000C84000BD08380240E6C2000870B500217B
:10490000002200230020274C246804F00C0424B16A
:10491000042C04D0082C41D103E0234840E0234874
:104920003EE0204C241F246804F03F011D4C241F4E
:10493000246804F4800484B11C4CB4FBF1F5194CD8
:10494000241F246847F6C076344096FAA6F6B6FAD5
:1049500086F6F44005FB04F20FE0134CB4FBF1F5CE
:10496000104C241F246847F6C076344096FAA6F609
:10497000B6FA86F6F44005FB04F20A4C241F2468BC
:1049800004F440344FF4403595FAA5F5B5FA85F5B1
:10499000EC40641C6300B2FBF3F001E0024800BF8E
:1049A00000BF70BD083802400024F40040787D014B
:1049B00038B504460025207800F00100002871D0A9
:1049C000FE48006800F00C0004280DD0FB48006889
:1049D00000F00C00082813D1F848001F006800F40C
:1049E0008000B0F5800F0BD1F44808380068C0F3A0
:1049F0004040002869D06068002866D1012038BD99
:104A000000BF6068B0F5803F08D1EC480838006806
:104A100040F48030E949083908602EE0606868B9E0
:104A2000E6480838006820F48030E4490839086016
:104A30000846006820F4802008601EE06068B0F539
:104A4000A02F0DD1DD480838006840F48020DB49F4
:104A5000083908600846006840F4803008600CE0BF
:104A6000D6480838006820F48030D44908390860F6
:104A70000846006820F48020086000BF606890B19C
:104A8000FDF718FD054606E0FDF714FD401B642800
:104A900001D90320B3E7C94808380068C0F3404093
:104AA0000028F1D011E0FDF705FD054606E0FDF711
:104AB00001FD401B642801D90320A0E7BF48083846
:104AC0000068C0F340400028F1D1207800F00200D7
:104AD000022873D1B948006800F00C0058B1B748FB
:104AE000006800F00C00082821D1B448001F0068BD
:104AF00000F48000D8B9B14808380068C0F340001D
:104B000020B1E068012801D0012078E7AB480838DF
:104B1000006820F0F800F82292FAA2F2B2FA82F2CB
:104B2000216991400843A5490839086046E0E068DA
:104B300050B3A2480838006840F001009F49083986
:104B40000860FDF7B7FC054606E0FDF7B3FC401B27
:104B5000022801D9032052E7984808380068C0F3BA
:104B600040000028F1D095480838006820F0F8008F
:104B7000F82292FAA2F2B2FA82F221699140084335
:104B80008E490839086019E08C480838006820F020
:104B900001008A4908390860FDF78CFC054606E0EB
:104BA000FDF788FC401B022801D9032027E7834832
:104BB00008380068C0F340000028F1D1207800F0E8
:104BC0000800082836D16069D0B17C486C30006894
:104BD00040F0010079496C310860FDF76BFC054637
:104BE00006E0FDF767FC401B022801D9032006E719
:104BF00072486C300068C0F340000028F1D019E022
:104C00006E486C30006820F001006C496C3108601F
:104C1000FDF750FC054606E0FDF74CFC401B022862
:104C200001D90320EBE665486C300068C0F3400012
:104C30000028F1D1207800F00400042871D100BFD1
:104C40005E483830006840F080505C493831086078
:104C50000846006800F08050009000BF00BF584830
:104C6000006840F4807056490860FDF723FC054653
:104C700006E0FDF71FFC401B642801D90320BEE6B7
:104C80004F48006800F480700028F2D000BFA06890
:104C9000012808D149486830006840F001004749C0
:104CA000683108602DE0A06868B944486830006841
:104CB00020F001004149683108600846006820F092
:104CC000040008601DE0A06805280DD13B4868304D
:104CD000006840F0040039496831086008460068FF
:104CE00040F0010008600CE034486830006820F0B3
:104CF00001003249683108600846006820F004006D
:104D0000086000BFA068A8B1FDF7D4FB054609E024
:104D1000FDF7D0FB401B41F28831884202D90320C5
:104D20006DE61BE0254868300068C0F340000028AD
:104D3000EED013E0FDF7BEFB054608E0FDF7BAFB39
:104D4000401B41F28831884201D9032057E61B48B5
:104D500068300068C0F340000028EFD1A06988B334
:104D60001648006800F00C00082873D0A0690228DB
:104D700064D112480838006820F080700F49083963
:104D80000860FDF797FB054606E0FDF793FB401B27
:104D9000022801D9032032E6084808380068C0F329
:104DA00040600028F1D1D4E90701084347F6C072FA
:104DB00092FAA2F2B2FA82F2616A04E00838024082
:104DC0000070004058E0914008430122A16AC2EB04
:104DD00051014FF4403292FAA2F2B2FA82F29140BB
:104DE00008434FF0706292FAA2F2B2FA82F2E16ADC
:104DF000914008434FF0E04292FAA2F2B2FA82F2F6
:104E0000216B914008431D490860081F006840F06D
:104E10008070091F0860FDF74DFB054606E0FDF7B1
:104E200049FB401B022801D90320E8E51348001F75
:104E30000068C0F340600028F1D01DE00F48001F5B
:104E4000006820F080700D49091F0860FDF732FBF3
:104E5000054607E00EE0FDF72DFB401B022801D9B7
:104E60000320CCE50548001F0068C0F3406000281F
:104E7000F1D101E00120C2E50020C0E50438024084
:104E800070B504460CB9012070BD94F85D0028B9D6
:104E9000002084F85C00204600F04CF8022084F8E2
:104EA0005D002068006820F0400021680860E0682C
:104EB000B0F5E06F01D9002501E04FF48055E068BE
:104EC000B0F5706F05D0E068B0F5E06F01D000215B
:104ED000A162D4E9010108432169084361690843DB
:104EE000218B01F400710843E1690843216A0843FA
:104EF000A16A084321680860206B022805D1206858
:104F0000006840F40060216808600421A06901EA9B
:104F10001040616A0843616B0843E1680843284315
:104F20002168486000202066012084F85D00002090
:104F3000AAE7000010B586B00446114920688842EF
:104F40001CD100BF0F48006840F480100D49086074
:104F50000846006800F48010009000BF00BF4FF4C6
:104F600070700190022002900020039003200490B2
:104F70000520059001A90448FDF78AF906B010BD87
:104F8000005001404438024000140240042808D177
:104F90004FF0E021096941F004014FF0E022116176
:104FA00007E04FF0E021096921F004014FF0E02211
:104FB00011617047704770B504462546681EB0F110
:104FC000807F01D301200FE0681E4FF0E02148618F
:104FD0000F214FF0FF3001F067F900204FF0E02182
:104FE000886107200861002070BD10B5FFF7E2FF5F
:104FF00010BD10B504460CB9012010BDA06900B168
:1050000000E000BF94F8690028B9002084F8680027
:10501000204600F02BF8242084F8690020680068FE
:1050200020F0010021680860204602F07FFC012882
:1050300000D1E2E7606A10B1204602F0C7FB2068A9
:10504000406820F49040216848602068806820F023
:105050002A00216888602068006840F0010021680B
:105060000860204602F027FCC7E7000010B586B0B4
:1050700004462A49206888422BD100BF284800688E
:1050800040F01000264908600846006800F0100053
:10509000009000BF00BF402001900220029001203C
:1050A0000390032004900720059001A91D48FDF7F7
:1050B000EFF84FF4806001900220029001200390ED
:1050C000032004900720059001A91748FDF7E0F898
:1050D00021E01649206888421DD100BF1048001FFA
:1050E000006840F400300E49091F08600846006857
:1050F00000F40030009000BF00BF6020019002204B
:10510000029001200390032004900720059001A93C
:105110000748FDF7BDF806B010BD000000100140C3
:1051200044380240000402400000024000440040B5
:10513000000C024000BFFEE701688969C1F340012D
:1051400011B10021026891620168896901F00101D1
:1051500029B90168896941F00101026891617047CC
:1051600070B504460D46164620688069C0F30010ED
:10517000002837D013E0681C88B125B1FDF79AF9F3
:10518000801BA8420BD9202084F84100002084F81D
:10519000420000BF84F8400000BF032070BD2068BB
:1051A0008069C0F340100028E5D010202168C86154
:1051B00020202168C8612046FFF7BEFF20684068B4
:1051C000094908402168486004206064202084F870
:1051D0004100002084F8420000BF84F8400000BF76
:1051E0000120DBE70020D9E700E800FEF0B50C461F
:1051F000059D002106687168074E3140C4F3090619
:105200004FF47F0707EA02473E431E432E433143D4
:1052100006687160F0BD0000009800FC2DE9F041C7
:1052200004460E4617461D46DDF8188015E0681C3A
:1052300098B12DB1FDF73EF9A0EB0800A8420CD9BA
:10524000202084F84100002084F8420000BF84F848
:10525000400000BF0320BDE8F08120688069304035
:10526000B04201D1012000E00020B842DFD0002090
:10527000F1E770B504460D4616461DE03246294654
:105280002046FFF76DFF08B1012070BD25B1FDF785
:1052900011F9801BA8420FD9606C40F020006064B7
:1052A000202084F84100002084F8420000BF84F8E8
:1052B000400000BF0320E8E720688069C0F3401089
:1052C0000028DBD00020E0E770B504460D46164606
:1052D0001FE0324629462046FFF742FF08B1012071
:1052E00070BD681CA8B125B1FDF7E4F8801BA84289
:1052F0000FD9606C40F020006064202084F84100E9
:10530000002084F8420000BF84F8400000BF032062
:10531000E6E720688069C0F340000028D9D000206B
:10532000DEE7000030B50146002200230020CC69F2
:10533000012C23D0022C23D1134C246804F48004C4
:105340003CB9114C246804F03F04104DB5FBF4F354
:1053500006E00D4C246804F03F040D4DB5FBF4F35A
:10536000094C80342468C4F30272074C80342468EA
:10537000C4F388145C43B4FBF2F002E0054800E09B
:1053800000BF00BF30BD0000043802400024F4001C
:1053900040787D010080BB00F0B50023002400258B
:1053A0008E880768FF68C7F30B473E4433040668DE
:1053B0008436802707FB0266766806F47047066825
:1053C00084364FF0800C0CFB026677600E6807682D
:1053D000FF68C7F30B473E44761C1E4307688437BB
:1053E0000CFB02777E608E890768FF68C7F30A07A7
:1053F0003E44330406688436802707FB0266B6689D
:1054000006F47047066884360CFB0266B7608E6847
:105410000768FF68C7F30A073E44761C1E43076807
:1054200084370CFB0277BE6006688436802707FB52
:105430000266366926F00707066884360CFB0266AA
:1054400037610F69066884360CFB026637613126C6
:10545000765C33023226765C34040E7E35060668AE
:105460008436802707FB0266B66900270668843603
:105470000CFB0266B76191F830601E4326432E4351
:10548000076884370CFB0277BE6106688436802784
:1054900007FB0266766926F0FF07066884360CFB78
:1054A000026677614F69066884360CFB0266776195
:1054B00006688436802707FB0266F76940F20776A4
:1054C000B743066884360CFB0266F761D1E90767CB
:1054D0003E43076884370CFB0277FE61066884361A
:1054E000802707FB0266B66A0027066884360CFB35
:1054F0000266B7624F6A066884360CFB0266B762C2
:105500000E690EB9042313E00E69012E01D10323A5
:105510000EE00E69042E08D00E69022E05D00E6929
:10552000032E02D00E69072E01D1022300E00123D1
:1055300006688436802707FB0266F66A06F0E027D5
:10554000066884364FF0800C0CFB0266F762D1E9E6
:105550000076F61B5E43F71C0E8D5E4347EA064756
:10556000066884360CFB0266F7620668843680277C
:1055700007FB0266366BF70AFF02066884360CFBEF
:1055800002663763CF6A066884360CFB02663763AF
:1055900006688436D701F65946F001070668843656
:1055A0004FEAC21C46F80C70F0BD70B50546D5F840
:1055B00018424FF40670005D48B94FF40570005969
:1055C00028B1607A18B90121284602F0F0FF812144
:1055D000284602F0ECFF607A022806D11F2304F56A
:1055E00003720121284602F053FF70BD70B50546D5
:1055F000D5F818424FF4047001594FF40C70015162
:105600004FF4057001594FF40D70015101212846E6
:1056100002F0C9FE1F2811D12749D4F80C02884294
:105620000CD140F21920005D012807DC4815005D0F
:10563000012803DB4815005D10280DDD40F219201C
:10564000015D20230522284601F0CFFD0220607273
:105650002846FFF7AAFF2EE040F21920015D04F270
:105660001B22284601F0B0FA00280BDA207A052820
:1056700004D10121284600F0B7F81CE02846FFF7C6
:1056800094FF18E0207A022815D0207A012812D041
:10569000207A03280FD06089002806DD628904F192
:1056A0000C01284600F0BEF805E0608918B9002119
:1056B000284600F099F870BD5553424370B5064630
:1056C0000D46D6F81842607A022806D1812130466C
:1056D00002F06DFF002060720AE005F08000802873
:1056E00006D1607A012803D00121304600F07CF811
:1056F00070BD70B505460E46D5F81842207A0228CE
:1057000004D0032812D0042815D10EE040F219204D
:10571000015D04F21B22284601F056FA002803DA44
:105720000121284600F060F806E000BF002128466D
:1057300000F05AF800E000BF00BF70BD70B505462C
:105740000E46D5F81842207A10B1012813D103E093
:105750002846FFF74BFF0FE040F21920015D04F2ED
:105760001B22284601F030FA002803DA01212846DE
:1057700000F03AF800E000BF00BF70BDD0F818128A
:1057800000220A72704770B50546D5F8184200200D
:105790002072607284F85D0284F85C02D5F81C0205
:1057A0000168002088470121284602F0F2FD81218E
:1057B000284602F0EEFD1F2304F50372012128465E
:1057C00002F066FE70BD70B50546D5F8184200209F
:1057D0002072012060721F2304F503720121284604
:1057E00002F056FE70BD000070B505460E46D5F8B5
:1057F00018420B48C4F82C024FF40E7006550020D6
:1058000020720D2304F50B728121284602F0EBFE75
:105810001F2304F503720121284602F039FE70BDF2
:10582000555342532DE9F04106460F461546D6F82A
:1058300018424FF405700059A84203D24FF4057086
:10584000005900E0284685B24FF40D700059411B05
:105850004FF40D7001510021001D015504202072EC
:105860002B463A468121304602F0BDFEBDE8F0816C
:105870002DE9F04106460F461546D6F81842207A23
:10588000002854D14FF40670005D00F0800080289D
:105890000BD040F21920015D20230522304601F093
:1058A000A4FC4FF0FF30BDE8F081A8780006E9784D
:1058B00040EA0140297940EA012069790843C4F8A7
:1058C0006402287AE97940EA0120C4F86802B4F851
:1058D000680283B239463046D4F8642201F04AF8AF
:1058E000002802DA4FF0FF30DDE702202072B4F822
:1058F0005E12D4F864024843C4F86402B4F85E123D
:10590000D4F868024843C4F868024FF4057000599F
:10591000D4F8681288420AD040F21920015D202391
:105920000522304601F061FC4FF0FF30BBE74FF439
:10593000007060813946304600F086FFB3E72DE9FC
:10594000F04105460E461746D5F81842207A40BB6E
:105950004FF40670005D00F0800080280BD040F20C
:105960001920015D20230522284601F03EFC4FF05E
:10597000FF30BDE8F0810020C4F864020120C4F8C3
:105980006802B4F8680283B231462846D4F864222B
:1059900000F0F0FF002802DA4FF0FF30E9E70220C4
:1059A0002072012060813146284600F0FDFFE0E7CB
:1059B0002DE9F04105460E461746D5F81842207AE3
:1059C00040BB4FF40670005D00F0800080280BD0D3
:1059D00040F21920015D20230522284601F005FC34
:1059E0004FF0FF30BDE8F0810020C4F864020120D0
:1059F000C4F86802B4F8680283B231462846D4F885
:105A0000642200F0B7FF002802DA4FF0FF30E9E728
:105A100002202072012060813146284600F0F2FF0A
:105A2000E0E700002DE9F04106460F461446D6F89F
:105A30001852287A002844D1C5F864020120C5F81C
:105A40006802B5F8680283B239463046D5F8642258
:105A500000F090FF002803DA4FF0FF30BDE8F0813E
:105A60006078A17840EA012018490860E07821793F
:105A700040EA0120154948606079A17940EA012097
:105A800012498860E079217A40EA01200F49C86014
:105A90002078D82808D10120C874607A0874A07AC8
:105AA0004874E07A88740CE02078D92803D1022069
:105AB0000649C87405E02078DA2802D1032003499A
:105AC000C8740020688100BFC8E7000000160020ED
:105AD0002DE9F04105460E461746D5F81842207AC2
